:020000040800F2
:100000000050002081040008C9040008C904000849
:10001000C9040008C9040008C90400080000000061
:10002000000000000000000000000000C9040008FB
:10003000C904000800000000C9040008010300080A
:10004000C9040008C9040008C9040008C90400085C
:10005000C9040008C9040008C9040008C90400084C
:10006000C9040008C9040008C9040008C90400083C
:10007000C9040008C9040008C9040008C90400082C
:10008000C9040008C9040008C9040008C90400081C
:10009000C9040008C9040008C9040008C90400080C
:1000A000C9040008C9040008C9040008C9040008FC
:1000B000C9040008C9040008C9040008C9040008EC
:1000C000C9040008C9040008C9040008C9040008DC
:1000D000C9040008C9040008C9040008C9040008CC
:1000E000C9040008C9040008C90400080000000091
:1000F0000000000000000000000000000000000000
:0C01000000000000000000005FF808F1A3
:10010C000348044B834202D0034B03B1184770479A
:10011C000C0000200C000020000000000548064BDD
:10012C001B1AD90F01EBA301491002D0034B03B1E9
:10013C00184770470C0000200C0000200000000045
:10014C0010B5064C237843B9FFF7DAFF044B13B113
:10015C000448AFF300800123237010BD0C00002075
:10016C0000000000140B000808B5054B1BB1054935
:10017C000548AFF30080BDE80840FFF7CFBF00BFD4
:10018C000000000010000020140B000870B50026C1
:10019C000C4D0D4B5B1B9C10A64209D1002600F0A8
:1001AC00B3FC0A4D0A4B5B1B9C10A64205D170BDDB
:1001BC0055F8043B98470136EEE755F8043B984751
:1001CC000136F2E72C0B00082C0B00082C0B000856
:1001DC00300B000880B582B000AF00F071F900F070
:1001EC003DF80023FB7101224FF40051194800F037
:1001FC008EFB0121184800F073FB0346002BF8D14D
:10020C00142000F0C5F90121134800F069FB0346E6
:10021C00002BEED1FB79002B0CBF01230023DBB2AA
:10022C00FB71FB79002B0CBF01230023DBB21A46B8
:10023C004FF40051074800F06AFB00BF012106484B
:10024C0000F04EFB0346002BF8D0142000F0A0F970
:10025C00CFE700BF001001400008014080B586B018
:10026C0000AF07F1080300221A605A609A60DA6046
:10027C001D4B9B691C4A43F0040393611A4B9B6909
:10028C0003F004037B607B68174B9B69164A43F0B1
:10029C0010039361144B9B6903F010033B603B68A4
:1002AC0001224FF40051114800F031FB4FF4005380
:1002BC00BB600123FB6002237B6107F10803194635
:1002CC000A4800F089F90123BB600023FB6001237D
:1002DC003B6107F108031946054800F07DF900BFA2
:1002EC001837BD4680BD00BF001002400010014011
:1002FC000008014080B500AF00F02EF900BF80BDB2
:10030C0080B483B000AF00237B6000233B60544B70
:10031C001B68534A43F001031360514B5A68504910
:10032C00504B13404B604E4B1B684D4A23F084736B
:10033C0023F4803313604A4B1B68494A23F480230F
:10034C001360474B5B68464A23F4FE035360444BEF
:10035C004FF41F029A60424B1B68414A43F48033AE
:10036C0013603F4B1B6803F400333B607B68013325
:10037C007B603B68002B03D17B68B3F5A04FF0D1B9
:10038C00374B1B6803F40033002B02D001233B6076
:10039C0001E000233B603B68012B58D1324B1B68BA
:1003AC00314A43F0100313602F4B1B682E4A23F085
:1003BC00070313602C4B1B682B4A43F00403136098
:1003CC00274B274A5B685360254B254A5B68536073
:1003DC00234B5B68224A43F480635360204B5B6879
:1003EC001F4A43F4004353601D4B5B681C4A23F4C3
:1003FC00800353601A4B5B68194A23F47C135360D7
:10040C00174B5B68164A43F4E8135360144B1B6894
:10041C00134A43F08073136000BF114B1B6803F049
:10042C000073002BF9D00E4B5B680D4A23F00303CD
:10043C0053600B4B5B680A4A43F00203536000BFE6
:10044C00074B5B6803F00C03082BF9D102E0074B58
:10045C00074A1A6000BF0C37BD4680BC704700BF0E
:10046C00001002400000FFF00020024000000020BD
:10047C0000127A00FFF744FF0B480C490C4A00238A
:10048C0002E0D458C4500433C4188C42F9D3094A3E
:10049C00094C002301E013600432A242FBD3FFF7A6
:1004AC0075FEFFF797FE7047000000200C0000203F
:1004BC00340B00080C0000202C000020FEE700008C
:1004CC0080B500AF084B1B68074A43F0100313605C
:1004DC00032000F0E5FA0F2000F00EF800F006F80B
:1004EC000023184680BD00BF0020024080B400AF3E
:1004FC0000BFBD4680BC704780B582B000AF78604D
:10050C00124B1A68124B1B7819464FF47A73B3FBD3
:10051C00F1F3B2FBF3F3184600F0E9FA0346002BB3
:10052C0001D001230EE07B680F2B0AD800227968DA
:10053C004FF0FF3000F0BFFA064A7B6813600023CF
:10054C0000E0012318460837BD4680BD000000209E
:10055C00080000200400002080B400AF054B1B787D
:10056C001A46054B1B681344034A136000BFBD4673
:10057C0080BC7047080000202800002080B400AF29
:10058C00024B1B681846BD4680BC704728000020F3
:10059C0080B584B000AF7860FFF7F0FFB8607B687F
:1005AC00FB60FB68B3F1FF3F05D00A4B1B781A4682
:1005BC00FB681344FB6000BFFFF7E0FF0246BB681B
:1005CC00D31AFA689A42F7D800BF00BF1037BD465D
:1005DC0080BD00BF0800002080B48BB000AF7860F5
:1005EC00396000237B6200233B6269E101227B6A54
:1005FC0002FA03F3FB613B681B68FA691340BB61A9
:10060C00BA69FB699A4240F058813B685B689A4A28
:10061C0093425ED0984A934275D8984A934258D0E8
:10062C00964A93426FD8964A934252D0944A934238
:10063C0069D8944A93424CD0924A934263D8924AD6
:10064C00934246D0904A93425DD8122B2AD8122B53
:10065C0059D801A252F823F0DF060008B9060008A9
:10066C00CB0600080D070008130700081307000845
:10067C0013070008130700081307000813070008E6
:10068C0013070008130700081307000813070008D6
:10069C00130700081307000813070008C106000819
:1006AC00D5060008794A934213D02CE03B68DB68EE
:1006BC003B6229E03B68DB6804333B6224E03B6827
:1006CC00DB6808333B621FE03B68DB680C333B6242
:1006DC001AE03B689B68002B02D104233B6213E0B9
:1006EC003B689B68012B05D108233B627B68FA6948
:1006FC001A6109E008233B627B68FA695A6103E0DE
:10070C0000233B6200E000BFBB69FF2B01D87B6874
:10071C0001E07B6804337B61BB69FF2B02D87B6AE9
:10072C009B0002E07B6A083B9B003B617B691A687B
:10073C000F213B6901FA03F3DB431A40396A3B6929
:10074C0001FA03F31A437B691A603B685B6803F098
:10075C008053002B00F0B1804D4B9B694C4A43F009
:10076C00010393614A4B9B6903F00103BB60BB68B7
:10077C00484A7B6A9B08023352F82330FB607B6A41
:10078C0003F003039B000F2202FA03F3DB43FA6826
:10079C001340FB607B68404A934213D07B683F4A0E
:1007AC0093420DD07B683E4A934207D07B683D4A0A
:1007BC00934201D1032306E0042304E0022302E068
:1007CC00012300E000237A6A02F0030292009340B6
:1007DC00FA681343FB602F497B6A9B080233FA6863
:1007EC0041F823203B685B6803F48013002B06D090
:1007FC002D4B9A682C49BB6913438B6006E02A4B3E
:10080C009A68BB69DB43284913408B603B685B6883
:10081C0003F40013002B06D0234BDA682249BB6982
:10082C001343CB6006E0204BDA68BB69DB431E49FF
:10083C001340CB603B685B6803F40033002B06D09D
:10084C00194B5A681849BB6913434B6006E0164BA9
:10085C005A68BB69DB43144913404B603B685B68C7
:10086C0003F48033002B21D00F4B1A680E49BB695F
:10087C0013430B6021E000BF000032100000311068
:10088C0000002210000021100000121000001110B6
:10089C00001002400000014000080140000C014023
:1008AC000010014000140140000401400B4B1A6879
:1008BC00BB69DB43094913400B607B6A01337B62E4
:1008CC003B681A687B6A22FA03F3002B7FF48EAE26
:1008DC0000BF00BF2C37BD4680BC704700040140F0
:1008EC0080B485B000AF78600B467B807B689A68DB
:1008FC007B881340002B02D00123FB7301E0002303
:10090C00FB73FB7B18461437BD4680BC704780B424
:10091C0083B000AF78600B467B8013467B707B788E
:10092C00002B03D07A887B681A6103E07B881A0459
:10093C007B681A6100BF0C37BD4680BC7047000055
:10094C0080B485B000AF78607B6803F00703FB6070
:10095C000C4BDB68BB60BA684FF6FF031340BB60FF
:10096C00FB681A02BB68134343F0BF6343F40033C4
:10097C00BB60044ABB68D36000BF1437BD4680BC63
:10098C00704700BF00ED00E080B400AF044BDB68A3
:10099C001B0A03F007031846BD4680BC704700BF16
:1009AC0000ED00E080B483B000AF03463960FB710A
:1009BC0097F90730002B0ADB3B68DAB20C4997F940
:1009CC0007301201D2B20B4483F800230AE03B68D3
:1009DC00DAB20849FB7903F00F03043B1201D2B2DF
:1009EC000B441A7600BF0C37BD4680BC704700BF65
:1009FC0000E100E000ED00E080B489B000AFF860E9
:100A0C00B9607A60FB6803F00703FB61FB69C3F113
:100A1C000703042B28BF0423BB61FB690433062B9B
:100A2C0002D9FB69033B00E000237B614FF0FF32EE
:100A3C00BB6902FA03F3DA43BB681A407B699A403C
:100A4C004FF0FF317B6901FA03F3D9437B680B400C
:100A5C00134318462437BD4680BC704780B582B01E
:100A6C0000AF78607B68013BB3F1807F01D3012339
:100A7C000FE00A4A7B68013B53600F214FF0FF30B7
:100A8C00FFF790FF054B00229A60044B07221A6077
:100A9C00002318460837BD4680BD00BF10E000E0BB
:100AAC0080B582B000AF78607868FFF749FF00BF6F
:100ABC000837BD4680BD80B586B000AF0346B9602F
:100ACC007A60FB7300237B61FFF75EFF78617A68C5
:100ADC00B9687869FFF790FF024697F90F30114615
:100AEC001846FFF75FFF00BF1837BD4680BD80B5C5
:100AFC0082B000AF78607868FFF7B0FF0346184605
:100B0C000837BD4680BD0000F8B500BFF8BC08BC76
:100B1C009E467047F8B500BFF8BC08BC9E467047AF
:040B2C007501000847
:040B30004D0100086B
:0C0B340000A24A041000000001000000B4
:04000005080004816A
:00000001FF
